:020000001928BD
:100008007E1480310B1F09280A2817282100111C8B
:100018000E280F2817282000111C13281428172829
:100028008031802080317E1009001A28F8017E1066
:100038002000532822008C018E01373021008C00CB
:100048003B308E0023008E0103308C0024008C018D
:100058008E0125008C018E01373026008C003F3040
:100068008E003F3027008C003F308E0008002000B3
:100078009C01FB309A001E30990011101A08F300F9
:100088001908F20021001114D030F6000030F700F2
:100098008031C7208031213020009B00080080314A
:1000A800A62080316A30F6000030F7008031C72082
:1000B80080318B170B1720008E1963286428672856
:1000C800F801F80A5F28F8015F28192822000E15A0
:1000D8005330890B6D2800007803031D7428752898
:1000E8007A285330890B762800007D281D30890B2B
:1000F8007B2822000E110800200011107308F5005B
:100108007208F40080319520803170087104031959
:100118008E288F28942871088A0070080A00803178
:10012800080020001B1D99289A28A1281B10750873
:100138009A00740899001B14A52875089A00740879
:10014800990008008031BF20803180311E20803125
:100158008031B62080318031CC20803180313B2005
:10016800803108006230320099009B019D01033004
:100178009F009E01080032009101920193019401B1
:100188009501960108007708F1007608F00008004C
:0A019800163021009700080008004F
:020000040001F9
:08000000FF3FFF3FFF3FFF3F00
:08000E00EC3FF33FFF1FFF3F31
:00000001FF
